S01F00002E2F67725F6275696C642F6B7572756D695F736B657463682E6D6F7410
S10500000E8D5F
S11300041E892A89368942894E895A8980898C892C
S1130014B289D889FE89248A308A3C8A628A888A89
S1130024AE8AD48AFA8A208B468B528B8E8B9A8B17
S1130034A68BCC8BF28B188CFFFFFFFFFFFF248C65
S11300444A8C708C968CA28CAE8CBA8CC68CD28C56
S1130054DE8CFFFFFFFFFFFFFFFFEA8CFFFFF68C40
S1130064FFFFFFFFFFFFFFFFFFFFFFFFFFFFFFFF98
S10F0074FFFFFFFFFFFFFFFFFFFF028DF7
S10700C0EFFFE885DD
S10D00C4000000000000000000002E
S10700D8EC0E8D0099
S11300DC0000000000000000000000000000000010
S11300EC0000000000000000000000000000000000
S11300FC00000000000000000000000000000000F0
S113010C00000000000000000000000000000000DF
S11304E400000800080000000080FFFFFF7F0000F8
S11304F40080FFFFFF7F00000080FFFFFF7FFFFFFE
S1130504F707FFFFFFFF000000002A9E138101008C
S113051432AF0000DCB018B154B100000000000098
S113052400000000000000000000000000000000C3
S113053400000000000000005C3200000000000025
S113054400000000000000000000000000000000A3
S11305540000000000000000000000000000000093
S11305640000000000000000000000000000000083
S11305740000000000000000000000000100000072
S1130584000000000E33CDAB34126DE6ECDE050042
S11305940B00000000000000000000000000000048
S11305A40000000000000000000000000000000043
S11305B40000000000000000000000000000000033
S11305C40000000000000000000000000000000023
S11305D40000000000000000000000000000000013
S11305E40000000000000000000000000000000003
S11305F400000000000000000000000000000000F3
S113060400000000000000000000000000000000E2
S113061400000000000000000000000000000000D2
S113062400000000000000000000000000000000C2
S113063400000000000000000000000000000000B2
S113064400000000000000000000000000000000A2
S11306540000000000000000000000000000000092
S11306640000000000000000000000000000000082
S11306740000000000000000000000000000000072
S11306840000000000000000000000000000000062
S11306940000000000000000000000000000000052
S11306A40000000000000000000000000000000042
S11306B40000000000000000000000000000000032
S11306C40000000000000000000000000000000022
S11306D40000000000000000000000000000000012
S11306E40000000000000000000000000000000002
S11306F400000000000000000000000000000000F2
S113070400000000000000000000000000000000E1
S113071400000000000000000000000000000000D1
S113072400000000000000000000000000000000C1
S113073400000000000000000000000000000000B1
S113074400000000000000000000000000000000A1
S11307540000000000000000000000000000000091
S11307640000000000000000000000000000000081
S11307740000000000000000000000000000000071
S1130784000000000000000000000000FFFF000063
S113079400000000020000000000B6B1B6B1BAB116
S11307A4BAB1BEB1BEB1C2B1C2B1C6B1C6B1CAB1A9
S11307B4CAB1CEB1CEB1D2B1D2B1D6B1D6B1DAB119
S11307C4DAB1DEB1DEB1E2B1E2B1E6B1E6B1EAB189
S11307D4EAB1EEB1EEB1F2B1F2B1F6B1F6B1FAB1F9
S11307E4FAB1FEB1FEB102B202B206B206B20AB264
S11307F40AB20EB20EB212B212B216B216B21AB2D1
S11308041AB21EB21EB222B222B226B226B22AB240
S11308142AB22EB22EB232B232B236B236B23AB2B0
S11308243AB23EB23EB242B242B246B246B24AB220
S11308344AB24EB24EB252B252B256B256B25AB290
S11308445AB25EB25EB262B262B266B266B26AB200
S11308546AB26EB26EB272B272B276B276B27AB270
S11308647AB27EB27EB282B282B286B286B28AB2E0
S11308748AB28EB28EB292B292B296B296B29AB250
S11308849AB29EB29EB2A2B2A2B2A6B2A6B2AAB2C0
S1130894AAB2AEB2AEB2B2B2B2B2B6B2B6B2BAB230
S11308A4BAB2BEB2BEB2C2B2C2B2C6B2C6B2CAB2A0
S11308B4CAB2CEB2CEB2D2B2D2B2D6B2D6B2DAB210
S11308C4DAB2DEB2DEB2E2B2E2B2E6B2E6B2EAB280
S11308D4EAB2EEB2EEB2F2B2F2B2F6B2F6B2FAB2F0
S11308E4FAB2FEB2FEB202B302B306B306B30AB35B
S11308F40AB30EB30EB312B312B316B316B31AB3C8
S11309041AB31EB31EB322B322B326B326B32AB337
S11309142AB32EB32EB332B332B336B336B33AB3A7
S11309243AB33EB33EB342B342B346B346B34AB317
S11309344AB34EB34EB352B352B356B356B35AB387
S11309445AB35EB35EB362B362B366B366B36AB3F7
S11309546AB36EB36EB372B372B376B376B37AB367
S11309647AB37EB37EB382B382B386B386B38AB3D7
S11309748AB38EB38EB392B392B396B396B39AB347
S11309849AB39EB39EB3A2B3A2B3A6B3A6B3AAB3B7
S10D0994AAB3AEB3AEB3B2B3B2B36C
S1133000474F21C2A56EC2A57200783D002C0079FD
S11330103D007A3D000A0D0036311E307C303653B7
S1133020747265616D0031344861726477617265F0
S113303053657269616C0000363126301830000027
S11330403830604CB3538C4BEE4BB14B414C743124
S11330505230395072696E7461626C65003949503E
S1133060416464726573730036315D304E30000024
S11330706830CF52355072696E7400007431743008
S1133080FFFFFF01FF0207FFFF0403E0FFFFFFFF55
S1133090FFFFFFFFFFFFE1E2E30204014002200122
S11330A001020810040201040810204080800180FD
S11330B002010101030103010100000101070707E7
S11330C00202020202020E0C0105050B1617183645
S11330D0536446696C6500003631CF307C300000A3
S11330E0D8300577B3533754776F5769726500004A
S11330F03631E63018300000F030D77F6A7F027F27
S1133100197F437F697F4E31305F5F6378786162F6
S113311069763132305F5F73695F636C6173735FCB
S1133120747970655F696E666F45000036310631EB
S11331306A3100002C31E08EF88E2CB62FB66496DE
S113314032950691228F71904E31305F5F637878AB
S1133150616269763131375F5F636C6173735F7489
S11331607970655F696E666F45003631483140326B
S113317000006A31B795CF952CB62FB66496329578
S1133180F995ED96A1957374643A3A657863657020
S113319074696F6E007374643A3A6261645F65784F
S11331A063657074696F6E00537439657863657014
S11331B074696F6E00007431A831537431336261E5
S11331C0645F657863657074696F6E003631BA3117
S11331D0B6314E31305F5F63787861626976313140
S11331E0355F5F666F726365645F756E77696E6481
S11331F045007431D2314E31305F5F63787861625B
S113320069763131395F5F666F726569676E5F65D4
S11332107863657074696F6E45007431F63100002F
S1133220B63176B394B38AB30000CC3180B3ACB377
S11332308FB3537439747970655F696E666F00007B
S1133240743132320000403222B635B62CB62FB675
S11332504DB632B673717274660032AF430000002B
S11332600000000000000000000102020303030349
S11332700404040404040404050505050505050502
S113328005050505050505050606060606060606E2
S113329006060606060606060606060606060606CA
S11332A006060606060606060707070707070707B2
S11332B0070707070707070707070707070707079A
S11332C0070707070707070707070707070707078A
S11332D0070707070707070707070707070707077A
S11332E00707070707070707080808080808080862
S11332F0080808080808080808080808080808084A
S11333000808080808080808080808080808080839
S11333100808080808080808080808080808080829
S11333200808080808080808080808080808080819
S11333300808080808080808080808080808080809
S113334008080808080808080808080808080808F9
S113335008080808080808080808080808080808E9
S11333600808080808080808FF03110104000101FF
S11333700501007F00007D00000000000000000047
S1133380FF030D0102000101000000000000000025
S1133390FF030D0104000101000100000000000012
S11333A000000000FFFF4F529953B268CC68E668F2
S11333B0096923693D695769C069E16905810000AC
S10733C0FFFF000007
S11333C4AF04AFA144090071FF61E3ECD43300F608
S11333D4BF04AFD72004A808BDF0BDF4FAF4ABBD14
S11333E4F2ADF0B800880A9802ADF2BDF4FAF4AB79
S11333F4BDF2FAF261FA1004D72004AF04AFBDF0B1
S1133404AF02AF46F061F8EC943500ADF04404002B
S113341461F8EC10350044040071FF61F3EC983456
S11334240044010061F8ECEE340044010071FF61D2
S1133434F3EC66340044000061E8EC94350030FF9A
S113344400BFC0B35116980030FF00B802FC0D65EC
S11334540030FF00BFBEB35117980030FF00EC7B6F
S1133464350044020061F8ECFF340044030061E8D1
S1133474EC94350030FF00BFC0B35116980030FF00
S113348400B802FC0D6500F6BFBEB351179800F6F0
S1133494EC50350044060061F8EC63350044060042
S11334A471FF61D8EC34350044080071FF61F3EC1A
S11334B494350030FF00BFC0B35116980030FF00AC
S11334C4B802FC0D6500305E00BFBEB3511798000E
S11334D4305E00B802FC0D6500305E00BFBCB35121
S11334E4189800305E00EC8E350030FF00BFC0B386
S11334F45116980030FF00EC3D350030FF00BFC08A
S1133504B35116980030FF00EC6C350030FF00BF57
S1133514C0B35116980030FF00B802FC0D650030AA
S11335245E00BFBEB351179800305E00EC50350006
S1133534F6BFC0B351169800F6B802FC0D6500300E
S1133544FF00BFBEB35117980030FF00B802FC0D52
S11335546500F6BFBCB351189800F6EC8E3500F63E
S1133564BFC0B351169800F6B802FC0D6500F6BF4F
S1133574BEB351179800F6B802FC0D650030FF0085
S1133584BFBCB35118980030FF00B802FC0D6500AD
S1133594AF04AFBF02AF1004D761EFC1C361CF2042
S11335A468717BFAF4E88DE89DE98DE9705100BDFA
S11335B4F4D4E861F8ECC8350030100026F4BDF406
S11335C4ECCA3500ADF40106F404C2B3BDF4BDEA9B
S11335D4FAEA8B9DF7FAF48C019DF68C029DEA8D30
S11335E4F7CF01FF40D171FF61C8EC233600A86412
S11335F4B804A866B806A804040100B800A80661C3
S1133604D8A1040000B802A800B864A802B866FBF4
S1133614F8FF615961F501FFF19861EC483600F156
S11336249861FBF8FF617962F501FFF198618861A3
S11336349DF4FBF8FFD4F461E8EC48360061596169
S1133644EC3236006179628DF75C409DF4CF01FF62
S113365440D4F461F8EC8E3600A864B808A866B8BF
S11336640AA808040100B800A80A61D8A10400004B
S1133674B802A800B864A802B866FBF8FF615961EF
S1133684F501FFF19861ECB536008DF49861FBF80F
S1133694FF6179628DF49F01FF986188619DF4FB59
S11336A4F8FFD4F461E8ECB53600615961EC9F3657
S11336B4006179628DF75C209DF4CF01FF40D4F45E
S11336C461F8ECFB3600A864B80CA866B80EA80C24
S11336D4040100B800A80E61D8A1040000B802A82F
S11336E400B864A802B866FBF8FF615961F501FFEC
S11336F4F19861EC2237008DF49861FBF8FF61794D
S1133704628DF49F01FF986188619DF4FBF8FFD4F6
S1133714F461E8EC223700615961EC0C37006179FB
S1133724628DF75C109DF4CF01FF40D4F461F8EC92
S1133734683700A864B810A866B812A81004010079
S1133744B800A81261D8A1040000B802A800B864A3
S1133754A802B866FBF8FF615961F501FFF19861AD
S1133764EC8F37008DF49861FBF8FF6179628DF476
S11337749F01FF986188619DF4FBF8FFD4F461E82C
S1133784EC8F3700615961EC7937006179628DF708
S11337945C089DF4CF01FF40D4F461F8ECD5370004
S11337A4A864B814A866B816A814040100B800A83C
S11337B41661D8A1040000B802A800B864A802B82D
S11337C466FBF8FF615961F501FFF19861ECFC3780
S11337D4008DF49861FBF8FF6179628DF49F01FF19
S11337E4986188619DF4FBF8FFD4F461E8ECFC373C
S11337F400615961ECE637006179628DF75C049DE0
S1133804F4CF01FF40D4F461F8EC423800A864B862
S113381418A866B81AA818040100B800A81A61D830
S1133824A1040000B802A800B864A802B866FBF8B2
S1133834FF615961F501FFF19861EC6938008DF479
S11338449861FBF8FF6179628DF49F01FF986188A8
S1133854619DF4FBF8FFD4F461E8EC693800615924
S113386461EC5338006179628DF75C029DF4CF01F9
S1133874FF40D4F461F8ECAF3800A864B81CA8661F
S1133884B81EA81C040100B800A81E61D8A1040035
S113389400B802A800B864A802B866FBF8FF61592E
S11338A461F501FFF19861ECD638008DF49861FB61
S11338B4F8FF6179628DF49F01FF986188619DF43A
S11338C4FBF8FFD4F461E8ECD63800615961ECC02C
S11338D438006179625AF701CF01FF4061F8EC17AF
S11338E43900A864B820A866B822A820040100B846
S11338F400A82261D8A1040000B802A800B864A8F2
S113390402B866FBF8FF615961F501FFF19861ECB7
S11339143E39008DF79861FBF8FF6179628DF79F5A
S113392401FF986188619DF4FBF8FFD4F461E8EC2D
S11339343E3900615961EC2839006179628DF6CF12
S113394401FF40D171FF61C8EC813900A864B82437
S1133954A866B826A824040100B800A82661D8A142
S1133964040000B802A800B864A802B866FBF8FF13
S1133974615961F501FFF19861ECA63900F1986190
S1133984FBF8FF617962F501FFF1986188619DF4A8
S1133994FBF8FFD4F461E8ECA63900615961EC90BA
S11339A439006179628DF65C409DF4CF01FF40D407
S11339B4F461F8ECEC3900A864B828A866B82AA81D
S11339C428040100B800A82A61D8A1040000B802A0
S11339D4A800B864A802B866FBF8FF615961F50150
S11339E4FFF19861EC133A008DF49861FBF8FF61E0
S11339F479628DF49F01FF986188619DF4FBF8FF5F
S1133A04D4F461E8EC133A00615961ECFD390061C6
S1133A1479628DF65C209DF4CF01FF40D4F461F803
S1133A24EC593A00A864B82CA866B82EA82C040152
S1133A3400B800A82E61D8A1040000B802A800B8F8
S1133A4464A802B866FBF8FF615961F501FFF198B7
S1133A5461EC803A008DF49861FBF8FF6179628D22
S1133A64F49F01FF986188619DF4FBF8FFD4F4612D
S1133A74E8EC803A00615961EC6A3A006179628D3C
S1133A84F65C109DF4CF01FF40D4F461F8ECC63A1F
S1133A9400A864B830A866B832A830040100B8009D
S1133AA4A83261D8A1040000B802A800B864A8022E
S1133AB4B866FBF8FF615961F501FFF19861ECED1B
S1133AC43A008DF49861FBF8FF6179628DF49F01EB
S1133AD4FF986188619DF4FBF8FFD4F461E8ECED90
S1133AE43A00615961ECD73A006179628DF65C0859
S1133AF49DF4CF01FF40D4F461F8EC333B00A86497
S1133B04B834A866B836A834040100B800A83661ED
S1133B14D8A1040000B802A800B864A802B866FBDF
S1133B24F8FF615961F501FFF19861EC5A3B008D8E
S1133B34F49861FBF8FF6179628DF49F01FF986149
S1133B4488619DF4FBF8FFD4F461E8EC5A3B00610E
S1133B545961EC443B006179628DF65C049DF4CFB9
S1133B6401FF40D4F461F8ECA03B00A864B838A881
S1133B7466B83AA838040100B800A83A61D8A10488
S1133B840000B802A800B864A802B866FBF8FF6194
S1133B945961F501FFF19861ECC73B008DF498611C
S1133BA4FBF8FF6179628DF49F01FF986188619D40
S1133BB4F4FBF8FFD4F461E8ECC73B00615961EC11
S1133BC4B13B006179628DF65C029DF4CF01FF4044
S1133BD4D4F461F8EC0D3C00A864B83CA866B83E83
S1133BE4A83C040100B800A83E61D8A1040000B8B0
S1133BF402A800B864A802B866FBF8FF615961F52D
S1133C0401FFF19861EC343C008DF49861FBF8FFFA
S1133C146179628DF49F01FF986188619DF4FBF8DA
S1133C24FFD4F461E8EC343C00615961EC1E3C00BF
S1133C346179625AF601CF01FF4061F8EC753C00EA
S1133C44A864B840A866B842A840040100BDF4A81A
S1133C544261D8A1040000BDF6ADF4B864ADF6B871
S1133C6466FBF8FF615961F501FFF19861EC9C3C36
S1133C74008DF69861FBF8FF6179628DF69F01FF70
S1133C84986188619DF4FBF8FFD4F461E8EC9C3CF2
S1133C9400615961EC863C006179628DEACF01FFD1
S1133CA440D171FF61C8ECDF3C00A864B844A86645
S1133CB4B846A844040100BDF4A84661D8A1040090
S1133CC400BDF6ADF4B864ADF6B866FBF8FF61590F
S1133CD461F501FFF19861EC043D00F19861FBF892
S1133CE4FF617962F501FFF1986188619DF4FBF845
S1133CF4FFD4F461E8EC043D00615961ECEE3C004E
S1133D046179628DEA5C409DF4CF01FF40D4F46193
S1133D14F8EC4A3D00A864B848A866B84AA8480420
S1133D240100BDF4A84A61D8A1040000BDF6ADF4B5
S1133D34B864ADF6B866FBF8FF615961F501FFF1AB
S1133D449861EC713D008DF49861FBF8FF61796230
S1133D548DF49F01FF986188619DF4FBF8FFD4F40E
S1133D6461E8EC713D00615961EC5B3D006179628D
S1133D748DEA5C209DF4CF01FF40D4F461F8ECB7E4
S1133D843D00A864B84CA866B84EA84C040100BD14
S1133D94F4A84E61D8A1040000BDF6ADF4B864AD36
S1133DA4F6B866FBF8FF615961F501FFF19861EC1F
S1133DB4DE3D008DF49861FBF8FF6179628DF49F18
S1133DC401FF986188619DF4FBF8FFD4F461E8EC89
S1133DD4DE3D00615961ECC83D006179628DEA5CA5
S1133DE4109DF4CF01FF40D4F461F8EC243E00A804
S1133DF464B850A866B852A850040100BDF4A8528F
S1133E0461D8A1040000BDF6ADF4B864ADF6B8669B
S1133E14FBF8FF615961F501FFF19861EC4B3E0039
S1133E248DF49861FBF8FF6179628DF49F01FF982A
S1133E346188619DF4FBF8FFD4F461E8EC4B3E0027
S1133E44615961EC353E006179628DEA5C089DF448
S1133E54CF01FF40D4F461F8EC913E00A864B85457
S1133E64A866B856A854040100BDF4A85661D8A1A4
S1133E74040000BDF6ADF4B864ADF6B866FBF8FF13
S1133E84615961F501FFF19861ECB83E008DF49835
S1133E9461FBF8FF6179628DF49F01FF9861886189
S1133EA49DF4FBF8FFD4F461E8ECB83E0061596179
S1133EB4ECA23E006179628DEA5C049DF4CF01FFBB
S1133EC440D4F461F8ECFE3E00A864B858A866B87F
S1133ED45AA858040100BDF4A85A61D8A1040000EA
S1133EE4BDF6ADF4B864ADF6B866FBF8FF6159618C
S1133EF4F501FFF19861EC253F008DF49861FBF81E
S1133F04FF6179628DF49F01FF986188619DF4FBE0
S1133F14F8FFD4F461E8EC253F00615961EC0F3FEC
S1133F24006179628DEA5C029DF4CF01FF40D4F410
S1133F3461F8EC6B3F00A864B85CA866B85EA85C42
S1133F44040100BDF4A85E61D8A1040000BDF6AD6F
S1133F54F4B864ADF6B866FBF8FF615961F501FF86
S1133F64F19861EC923F008DF49861FBF8FF61795C
S1133F74628DF49F01FF986188619DF4FBF8FFD47E
S1133F84F461E8EC923F00615961EC7C3F00617993
S1133F94625AEA01CF01FF4061F8ECD33F00A86400
S1133FA4BDF0A866BDF2ADF0040100BDF4ADF2614C
S1133FB4D8A1040000BDF6ADF4B864ADF6B866FB50
S1133FC4F8FF615961F501FFF19861ECFA3F008D46
S1133FD4EA9861FBF8FF6179628DEA9F01FF9861B9
S1133FE488619DF4FBF8FFD4F461E8ECFA3F0061C6
S1133FF45961ECE43F006179628DE90C029DE94A60
S1134004E90F61E3ECAE3500A4E84AE80261E8ECA8
S1134014AA3500C9F0C2B3DAF0FAF08C2A482D00AC
S11340248C2B482E008C2C482F00ADF004FDFFBDD2
S1134034F04495B361E8EC1B4000717AFA106861AE
S1134044EFC2C061CFD761EFC1C361CF20048F92A7
S1134054B4705100BDF28F91B4705100318DBDF034
S1134064ADF206F0BDF0BDF4317B9DF69DF7AF16BD
S1134074AFBDE8AF18AFBDEAADF646EA71FF71779C
S1134084EBADF461F846E861E3EC9B4000ADF4BFAA
S113409416AFADF6BF18AFAF1AAFB800AF1CAFB8C8
S11340A402A800BDE8A802BDEAADF646EA71FF71B4
S11340B477EBADF461F846E861C8ECCC4000ADF4AC
S11340C4BF1AAFADF6BF1CAF100461EFC2C061CF1D
S11340D4D761EFC1C361CF20048F94B4705100BD84
S11340E4F28F93B4705100318DBDF0ADF206F0BD82
S11340F4F0BDF4317B9DF69DF7AF0EAFBDE8AF1074
S1134104AFBDEAADF646EA71FF7177EBADF461F841
S113411446E861E3EC264100ADF4BF0EAFADF6BF53
S113412410AFAF12AFB800AF14AFB802A800BDE827
S1134134A802BDEAADF646EA71FF7177EBADF4610E
S1134144F846E861C8EC574100ADF4BF12AFADF6D0
S1134154BF14AF100461EFC2C061CFD761EFC1C314
S113416461CF20048F96B4705100BDF28F95B47062
S11341745100318DBDF0ADF206F0BDF0BDF4317BDC
S11341849DF69DF7AF06AFBDE8AF08AFBDEAADF647
S113419446EA71FF7177EBADF461F846E861E3EC4C
S11341A4B14100ADF4BF06AFADF6BF08AFAF0AAF7F
S11341B4B800AF0CAFB802A800BDE8A802BDEAADD0
S11341C4F646EA71FF7177EBADF461F846E861C82D
S11341D4ECE24100ADF4BF0AAFADF6BF0CAF10047E
S11341E461EFC2C061CFD761EFC1C361CF20063094
S11341F4F4B9B800306900B802FCBC800030F4B9EA
S1134204B800307500B802FCD8330030F4B9B800F3
S1134214FCF58000300200B800FC2C5F0030F4B9D7
S1134224B800306900B802E6B804FC95800030F4A4
S1134234B9B800FC027F00ADF0BDE844000061F8A9
S1134244EC59420030F4B9B800FC197F00ADF0BD5C
S1134254EAEC32420030F4B9B800FCF580003002D4
S113426400B800FC2C5F0030BCB4B800ADEAB8025E
S1134274300A00B804FC26560030F4B9B80030699A
S113428400B802FCBC800030F4B9B800306B00B84C
S113429402FCD8330030F4B9B800ADE8B802FCD855
S11342A4330030F4B9B800FCF58000300F00B800D6
S11342B4F6B802FCB75E0030F4B9B800306900B84F
S11342C402FCBC800030F4B9B800303700B802FCFA
S11342D4D8330030F4B9B800300200B802FCD83343
S11342E40030F4B9B800FCF58000300F00B800F6D3
S11342F4B802FCB75E0030F4B9B800300C00B80260
S1134304FCBC800030F4B9B800300A00B802FCD810
S1134314330030F4B9B800301200B802FCD83300CA
S113432430F4B9B800FCF58000100661EFC2C06136
S1134334CFD7200651169800E19802FC0664005178
S1134344179800E19802FC06640051189800E1985B
S113435402FC066400FCFD330051039800E198025A
S1134364FC06640030BCB4B8003000C2B802E6B83D
S113437404FCAC500030B80BB800F6B802FCB75ECD
S11343840030F4B9B800FC52800030E803B800F6F9
S1134394B802FCB75E00FCEB410030E803B800F659
S11343A4B802FCB75E0030BCB4B800300030B802C8
S11343B4FC565400F1980030C433B802300200B8FB
S11343C404FCAA5F001006D761EFC161CF20063058
S11343D4F4B9B800306900B802FCBC800030F4B908
S11343E4B800303B00B802FCD8330030F4B9B8004C
S11343F4FCF58000300200B800FC2C5F0030F4B9F6
S1134404B800306900B802300E00B804FC9580008E
S113441430F4B9B800FC027F00ADF0440D0071FF24
S113442461E3EC144400C9E8000030F4B9B800FCBA
S1134434197F00DAE88DF04882B4A6E8ADE8440EAA
S11344440061E8EC2E440030F4B9B800300C00B834
S113445402FCBC800030F4B9B800300300B802FC9C
S1134464D8330030F4B9B800FCF58000300200B849
S113447400FC2C5F0030F4B9B800300C00B80230F2
S11344840700B804FC95800030F4B9B800FC027F3E
S113449400ADF044060071FF61E3EC8C440030F499
S11344A4B9B800FC197F00DAE88DF04882B4A6E8B4
S11344B4ADE844150061E8ECA24400100661EFC0C5
S11344C461CFD761EFC1C361CF2028FCCC4300FC8A
S11344D44A4000ADF0B810317B98129813AF16AF70
S11344E4021AAFBDF0AF18AF61D8A1021CAFBDF280
S11344F4ADF2317A9DF4300000BDF69DF5ADF406BD
S1134504F0BDF4ADF661D8A106F2BDF6ADF6311FE7
S1134514BDF68DF561FB9DF58DF461FB9DF4A8104A
S113452426F4BF7EB4A81261D8B126F6BF80B4FCC9
S1134534D54000ADF0B814317B98169817AF0EAF80
S11345440212AFBDF0AF10AF61D8A10214AFBDF237
S1134554ADF2317A9DF4300000BDF69DF5ADF4065C
S1134564F0BDF4ADF661D8A106F2BDF6ADF6311F87
S1134574BDF68DF561FB9DF58DF461FB9DF4A814E6
S113458426F4BF7AB4A81661D8B126F6BF7CB4FC6D
S1134594604100ADF0B818317B981A981BAF06AF90
S11345A4020AAFBDF0AF08AF61D8A1020CAFBDF2EF
S11345B4ADF2317A9DF4300000BDF69DF5ADF406FC
S11345C4F0BDF4ADF661D8A106F2BDF6ADF6311F27
S11345D4BDF28DF561FB9DF18DF461FB9DF0A8188E
S11345E426F0BDF4A81A61D8B126F2BDF68F81B4C1
S11345F471FC61C8EC044600F6BF7EB4F6BF80B417
S11346048F7DB471FC61C8EC174600F6BF7AB4F62A
S1134614BF7CB430000026F4BDF030000061D8B192
S113462426F6BDF27174F361D8EC3C4600ADF0BFDC
S113463476B4ADF2EC414600F6BF76B4F6BF78B476
S1134644AF7EB4B808AF80B4B80AAF7AB4B80CAFCC
S11346547CB4B80EAF76B4BDE8AF78B4BDEAA808AC
S1134664B800A80AB802A808B804A80AB806FC96B0
S1134674E500ADF0B824ADF2B826A80CB800A80E35
S1134684B802A80CB804A80EB806FC96E500A82441
S113469406F0B808A82661D8A106F2B80AADE8B8AD
S11346A400ADEAB802ADE8B804ADEAB806FC96E594
S11346B400A80806F0B800A80A61D8A106F2B80256
S11346C4FC5DE3008DF09DF48DF19DF58DF29DF676
S11346D48DF39DF78DF498008DF598018DF698026D
S11346E48DF79803FC12B9008DF09DE88DF19DE9D6
S11346F48DF29DEA8DF39DEBAF7CB4317D9803D9A3
S11347047BB48F7CB4317D9802AF7AB4317DB80028
S1134714FC5DE3008DF09DF48DF19DF58DF29DF625
S11347248DF39DF78DF498008DF598018DF698021C
S11347348DF798038DE898048DE998058DEA980619
S11347448DEB9807FC39E0008DF09DF48DF19DF517
S11347548DF29DF68DF39DF78DF498008DF59801F7
S11347648DF698028DF79803FC90E400ADF0B81C24
S1134774ADF2B81EAF78B4317D9803D977B48F788D
S1134784B4317D9802AF76B4317DB800FC5DE300AA
S11347948DF09DF48DF19DF58DF29DF68DF39DF7CD
S11347A48DF498008DF598018DF698028DF7980391
S11347B4FC39E0008DF09DF48DF19DF58DF29DF6AC
S11347C48DF39DF78DF498008DF598018DF698027C
S11347D48DF79803FC90E400ADF0B820ADF2B82254
S11347E4AF80B4317D9803D97FB48F80B4317D9880
S11347F402AF7EB4317DB800FC5DE3008DF09DF41E
S11348048DF19DF58DF29DF68DF39DF78DF4980051
S11348148DF598018DF698028DF79803FC39E00024
S11348248DF09DF48DF19DF58DF29DF68DF39DF73C
S11348348DF498008DF598018DF698028DF7980300
S1134844FC90E400ADF2317A9DF4300000BDF69D95
S1134854F5ADF406F012ADF661D8A106F2BDF2137B
S1134864BDF0ADF2311FBF80B48DF161FB9F7FB405
S11348748DF061FB9F7EB4A81E317A9DF030000058
S1134884BDF29DF1FBF8FFADF061091CBDF0ADF282
S113489461D8A161091EBDF2ADF2311FBF7CB48D94
S11348A4F161FB9F7BB48DF061FB9F7AB4A8223144
S11348B47A9DF0300000BDF29DF1ADF0610920BD98
S11348C4F0ADF261D8A1610922BDF2ADF2311FBF8E
S11348D478B48DF161FB9F77B48DF061FB9F76B45E
S11348E430BCB4B800300A30B802FC56540030BCB2
S11348F4B4B8008F91B4705100318DBDF28F92B46D
S1134904705100BDF0ADF206F0B802300A00B804EC
S1134914FC26560030BCB4B800300D30B802FC5646
S1134924540030BCB4B800300F30B802FC56540004
S113493430BCB4B8008F93B4705100318DBDF28F84
S113494494B4705100BDF0ADF206F0B802300A0020
S1134954B804FC26560030BCB4B800300D30B8029C
S1134964FC56540030BCB4B800301230B802FC56C3
S1134974540030BCB4B8008F95B4705100318DBD6F
S1134984F28F96B4705100BDF0ADF206F0B8023067
S11349940A00B804FC26560030BCB4B80030153004
S11349A4B802FC56540030BCB4B800FC414C0010AE
S11349B42861EFC2C061CFD761EFC1C3C561CF2005
S11349C40C8DF498078DF598068DF698058DF79857
S11349D404FCC74400AFBAB3BDECAF04AF44080051
S11349E461E8ECC64A00AF7EB4BDF4AF80B4BDF652
S11349F4ADF4BFBEB3ADECB800300900B8028DF419
S1134A0498078DF598068DF698058DF79804FC1C87
S1134A14E90088079DF488069DF58DF1708DF4D620
S1134A24609DF38DF5708DF0D6609DF28DF2768DD8
S1134A34F3610E9DF2D8F48DF0D6768DF2610E31C9
S1134A442EBDF48DF49FC2B3AF7AB4BDE8BFC0B336
S1134A548DF1708DE8D6609DF38DE9708DF0D6608C
S1134A649DF28DF2768DF3610E9DF2D8E88DF0D629
S1134A74768DF2610E312EBDE88DE89FC3B3AF7617
S1134A84B4B808AF78B4B80AA808BFBCB3ADECA1F5
S1134A94BFBAB388089DF38DF1708DF3D6609DF28F
S1134AA48809708DF0D6609DF18DF1768DF2610EDA
S1134AB49DF2D8F38DF0D6768DF2610E312EEC672B
S1134AC44B00ADECB800300900B802FC1CE9008FBF
S1134AD4BEB3708DF1D6609DF48FBFB3708DF0D6E4
S1134AE4609DF28DF2768DF4610E9DF4D8F08FBE44
S1134AF4B3D6768DF4610E313EBDF28DF29FC2B30E
S1134B048FC0B3708DF1D6609DF48FC1B3708DF0F6
S1134B14D6609DF28DF2768DF4610E9DF4D8F08FFB
S1134B24C0B3D6768DF4610E313EBDF28DF29FC3CF
S1134B34B3AFBCB3BDF2ADECA1BFBAB38DF3708D0A
S1134B44F0D6609DF48DF1708DF2D6609DF38DF3F3
S1134B54768DF4610E9DF3D8F08DF2D6768DF361E3
S1134B640E313EBDF08DF09FC4B3FC9D3500FCFDB9
S1134B743300301E00B800F6B802FCB75E00100C17
S1134B8461EFC4C2C061CFD7A804BDF0FAF0AC0C85
S1134B94BDF0FAF0AC40BDF2FAF0AC42BDF0ADF2B7
S1134BA426F0BDF28DF25C3F9DF0F4F1D7A804BD6C
S1134BB4F0FAF0AC0CBDF0FAF0AC40BDF4FAF0AC91
S1134BC442BDF2ADF446F261F8ECE94B00FAF0AC04
S1134BD442BDF2ADF006F2BDF2FAF28B705100BDA3
S1134BE4F0ECED4B00C9F0FFFFD7A804BDF0FAF0D8
S1134BF4AC0CBDF2FAF2AC40BDF4FAF2AC42BDF036
S1134C04ADF446F061F8EC3C4C00FAF2AC42BDF071
S1134C14ADF206F0BDF4FAF48B705100BDF0EAF283
S1134C24AA42A1BDF68DF65C3F9DF4F4F5DAF2AD2B
S1134C34F4784200EC404C00C9F0FFFFD7A804BD4F
S1134C44F0FAF0AC0EBDF0FAF0AC40BDF4AC42BDE9
S1134C54F2ADF446F261E8EC4B4C00D761EFC1616C
S1134C64CFA806BDF2FAF2AC0EBDF0EAF0AA40A158
S1134C74BDF68DF65C3F9DF4F4F5FAF0AC42BDF656
S1134C84ADF446F661F8EC7E4C00717BFAFAF0ACB4
S1134C9440BDF6ADF006F6BDF6DAF6880848000025
S1134CA4FAF2AC0EBDF0DAF0ADF47840008C109D4D
S1134CB4E8D4E861E8ECF04C00AF0001BDF68DF6F1
S1134CC45C409DF48DE89DF5ADF444000061E8EC8E
S1134CD4734D00715BE1FAF0AC42BDF4ADF006F43F
S1134CE4BDF4FAF48B9F10FFEC574D004AE80161C0
S1134CF4E8EC2A4D00AF0401BDF68DF65C409DF44A
S1134D04F4F5ADF444000061E8EC734D00710BE27A
S1134D14FAF0AC42BDF4ADF006F4BDF6FAF68B9F9E
S1134D2444FFEC574D00AF4001BDF68DF65C409D49
S1134D34F4F4F5ADF444000061E8EC734D00710B38
S1134D44E1FAF0AC42BDF4ADF006F4BDF4FAF48B30
S1134D549F48FFFAF2AC0EBDF2EAF2AA42A1BDF4F6
S1134D648DF45C3F9DF0F4F1DAF2ADF07842007119
S1134D747AFAC9F0010061EFC061CFD7A806BDF08B
S1134D84EAF0AA40A1BDF48DF45C3F9DF2F4F3FA79
S1134D94F0AC42BDF4ADF246F461F8ECBD4D00FA5A
S1134DA4F0AC40BDF4ADF006F4BDF6DAF688044880
S1134DB40000DAF0ADF2784000D720048F12FF9897
S1134DC4003022B6B802FC804D001004D720048FB2
S1134DD446FF9800309AB5B802FC804D001004D701
S1134DE420048F4AFF98003012B5B802FC804D00AD
S1134DF41004D7AF1EB6BDF2AF20B6BDF0ADF24677
S1134E04F061F8EC294E00AF20B604DEB5168B9F92
S1134E1410FFAF20B6A1BDF28DF25C3F9DF0F4F11A
S1134E24ADF0BF20B6D7AF96B5BDF2AF98B5BDF01F
S1134E34ADF246F061F8EC5C4E00AF98B50456B59B
S1134E44168B9F44FFAF98B5A1BDF28DF25C3F9DD4
S1134E54F0F4F1ADF0BF98B5D7AF0EB5BDF2AF1015
S1134E64B5BDF0ADF246F061F8EC8F4E00AF10B56D
S1134E7404CEB4168B9F48FFAF10B5A1BDF28DF2DA
S1134E845C3F9DF0F4F1ADF0BF10B5D78F12FF3045
S1134E940700BF0A01D78F46FF300700BF0E01D7B2
S1134EA48F4AFF300700BF4A01D7A804BDF0FAF0C7
S1134EB48C109DF0D4F061E8EC104F007120F000E8
S1134EC4AF2401BDF28DF26C039DF08DF39DF1AD21
S1134ED4F0BF2401715AED715AE9716AED716AE9FE
S1134EE4717AED717AE9302200BF1001309780BFE6
S1134EF4180171407000300700BF0A01302201BF5D
S1134F041201309744BF1A01ECB54F004AF0016115
S1134F14E8EC694F007120F000AF2401BDF28DF27A
S1134F246C0C9DF08DF39DF1ADF0BF2401710AEE7C
S1134F34710AEA711AEE711AEA712AEE712AEA30D8
S1134F442280BF1401309780BF1C0171407000306F
S1134F540700BF0E01302281BF1601309744BF1EE3
S1134F6401ECB54F007130F000AF6401BDF28DF275
S1134F746C039DF08DF39DF1ADF0BF6401710AEDF6
S1134F84710AE9711AED711AE9712AED712AE9308D
S1134F942200BF5001309780BF5801714070003027
S1134FA40700BF4A01302201BF5201309744BF5A5F
S1134FB401D7A804BDF0FAF08C109DF0D4F061E898
S1134FC4EC125000715BE1715BE5716BE1716BE5AF
S1134FD4717BE1717BE5AF2A01BDF28DF26C019D19
S1134FE4F08DF39DF1ADF0BF2A01AF2201BDF28D26
S1134FF4F26C039DF08DF39DF1ADF0BF22017110AD
S113500421FF712001FF712821FFECAB50004AF00D
S11350140161E8EC655000710BE2710BE6711BE26F
S1135024711BE6712BE2712BE6AF2A01BDF28DF2FE
S11350346C049DF08DF39DF1ADF0BF2A01AF220104
S1135044BDF28DF26C0C9DF08DF39DF1ADF0BF2299
S113505401711020FF710000FF710820FFECAB50B8
S113506400710BE1710BE5711BE1711BE5712BE11F
S1135074712BE5AF6A01BDF28DF26C019DF08DF3E5
S11350849DF1ADF0BF6A01AF6201BDF28DF26C0314
S11350949DF08DF39DF1ADF0BF6201714021FF716C
S11350A43001FF713821FFD761EFC1C3C561CF203F
S11350B414A81EBDE8A820BDF4A822BDF6C9EA00C0
S11350C4008DEA76E68696DD05311D96DFFBB80C85
S11350D4B810317B98129813300048B80030E801B6
S11350E4B802A810B804A812B8068DF498088DF56F
S11350F4980B8DF6980A8DF79809FCB6E700ADF085
S1135104B800ADF2B80288089DF4880B9DF5880AAE
S11351149DF688099DF7ADF4B804ADF6B806FCB263
S1135124E700ADF004FFFFBDF0ADF261D8A104FFC8
S1135134FFBDF2ADF2311EB80E8DF161FB980D8DF9
S1135144F061FB980CA80CBDF088089DF4880B9DB5
S1135154F5880A9DF688099DF7ADF0447F0061E364
S1135164EC755100A6EAADEA44100061E8ECC550C0
S113517400FAE88C109DF4A80C319DBDECADE8B8A0
S113518400D4F461E8ECCA51008DF49808FCAE4EE6
S113519400AF2601BDF28DF25CF09DF08DF39DF11C
S11351A4ADF0BF2601BDF28DEA5C0F9DF06BF29D5C
S11351B4F48DF39DF5ADF4BF2601ADECBF10FFBF34
S11351C412FFEC3D52004AF40161E8EC0A5200FC7F
S11351D4AE4E00AF2601BDF28DF25C0F9DF08DF34F
S11351E49DF1ADF0BF2601BDF28DEA31496BF29D0C
S11351F4F48DF39DF5ADF4BF2601ADECBF44FFBFC0
S113520446FFEC3D5200FCAE4E00AF6601BDF28D8C
S1135214F25CF09DF08DF39DF1ADF0BF6601BDF23B
S11352248DEA5C0F6BF29DF48DF39DF5ADF4BF66CE
S113523401ADECBF48FFBF4AFFADE8B800FCB64F70
S113524400101461EFC4C2C061CFD732BEB4F67883
S1135254000030E803780200F678040032BCB4306D
S113526442307800003022B6780C0030DEB5780E77
S113527400F148100032ACB4F678000030E803784A
S11352840200F678040032AAB430423078000030C8
S11352949AB5780C003056B5780E00E14810003207
S11352A49AB4F678000030E803780200F678040033
S11352B43298B43042307800003012B5780C0030A3
S11352C4CEB4780E005102481000D761EFC1C3C5B3
S11352D461CF200AA814BDE8A816BDECF6B806B838
S11352E408ADECB800A80606E8BDF0FAF08C029804
S11352F402300A00B804FCA35600ADF0BDEAADECDC
S1135304B800512E9802FC675400ADF006EABDF0D3
S1135314A80806F0B808FBF8FF617906A806440358
S11353240061E8ECE55200ADECB800FAE88C0598AD
S113533402300A00B804FCA35600A80806F0BDF025
S1135344100A61EFC4C2C061CFD72006A80ABDF019
S1135354BDF2DAF2307230780000ADF0040200B825
S113536400F6B802300400B804FC74C7001006D771
S1135374A804BDF0BDF2DAF2307230780000DAF03D
S113538488064802008808480300880A48040088FC
S11353940C480500D73266B6307230780000F14804
S11353A40200F1480300F1480400F1480500D76104
S11353B4EFC1C3C561CF2006A810BDEAA812BDEC95
S11353C4A81406ECB804C9E80000A80446EC61F883
S11353D4ECFF5300FAEAABBDF0ADEAB800FAEC8B8B
S11353E49802ADF0BDF2FAF2ABBDF2FAF261FAAD95
S11353F4E806F0BDE8A6ECECCE5300ADE8BDF01031
S11354040661EFC4C2C061CFD761EFC1C361CF20CD
S113541406A80EBDEAA810BDE844000061F8EC4BF0
S11354245400B800FCBCCA00FAEAABBDF2ADEAB859
S113543400ADE8B802ADF0B804FAF2AC02BDF2FA79
S1135444F261FAEC4D5400BDF0100661EFC2C06184
S1135454CFD72004A808B800A80AB802FC0D540049
S11354641004D72004A808BDF0BDF4FAF4ABBDF2CF
S1135474ADF0B800880A9802ADF2BDF4FAF4ABBDFD
S1135484F2FAF261FA1004D761EFC1C3C561CF2007
S113549436A842B808A844B80A88469DECF1983561
S11354A44AEC0161F3ECB05400CDEC0AAEF80434D8
S11354B400B8108DEC9DE8F4E98DE99DEA9DEBA814
S11354C408B800A80AB802ADE8B804ADEAB806FC06
S11354D4B2E700ADF0B80CADF2B80E880C9DF18DB6
S11354E4EC708DF1D6609DF08DF0768808612E9D68
S11354F4F0A810B8128DF04C0971FF61F3EC0B5550
S1135504000C30EC0D55000C379DF0A810BDF2DAF8
S1135514F28DF0480000ADF2B1B810A80E440000BA
S1135524A80C61F844000061F8EC3D5500A80CB8DF
S113553408A80EB80AECB75400A840B800A812B8DA
S113554402FC0D5400103661EFC4C2C061CFD761B0
S1135554EFC1C361CF200CA814BDE8A816BDF4A8FC
S113556418BDF6A81ABDF044000061E8EC92550099
S1135574FAE8ABBDF0ADE8B8008DF49802ADF0BD27
S1135584F2FAF2ABBDF2FAF261FAEC1D5600440AE7
S11355940061E8EC095600ADE8B8007174F761C81D
S11355A4ECFB5500512D98028DF4980B8DF5980A57
S11355B48DF698098DF79808FC675400ADF0BDEAA0
S11355C4ADE8B800880B9DF4880A9DF588099DF61A
S11355D488089DF730000026F4B80230000061D832
S11355E4B126F6B804510A9806FC8C5400ADF006B2
S11355F4EABDF0EC1D5600ADF4B802ADF6B80451A2
S11356040AEC175600ADE8B800ADF4B802ADF6B82C
S1135614048DF09806FC8C5400100C61EFC2C06138
S1135624CFD72008A80EBDF0A80CB800ADF0B8027E
S1135634317B98049805A810B806FC53550010084B
S1135644D761EFC161CF2008A80EBDF2A810BDF444
S1135654A812BDF6A814BDF044000061E8EC875616
S113566400ADF2BDE8FAE8ABBDF0ADF2B8008DF4DC
S11356749802ADF0BDF2FAF2ABBDE8FAE861FAECD7
S11356849B5600ADF2B800ADF4B802ADF6B8048D83
S1135694F09806FC8C5400100861EFC061CFD72049
S11356A408A80CB800880E9802F19803F19804F144
S11356B49805A810B806FC4556001008D7F131F235
S11356C4FA01E19DF0D761EFC1C361CF88089DEB76
S11356D4A80ABDF4A80CBDF288109DEAAFB401BDBC
S11356E4E88DEB76E68696DD05311D96DFFBBDF08D
S11356F48DF06BE89DF68DF16BE99DF7ADF6BFB4C3
S1135704014AEB0461F8ECC457004AEB0461F3EC7E
S11357143657004AEB0261F8EC7A57004AEB02610F
S1135724F3EC9F57004AEB0161F8EC555700EC5435
S113573458004AEB0661F8EC0E58004AEB0661D8AF
S1135744ECE957004AEB0761F8EC335800EC545881
S113575400715AE6715BE2715AEE715AEAADF4BF14
S11357649201ADF2BF1AFFD4EA61F8EC5458007107
S11357745BE6EC545800716AE6716BE2716AEE718F
S11357846AEAADF4BF9401ADF2BF64FFD4EA61F8F0
S1135794EC545800716BE6EC545800717AE6717B52
S11357A4E2717AEE717AEAADF4BF9601ADF2BF66A6
S11357B4FFD4EA61F8EC545800717BE6EC545800C9
S11357C4717AE7717BE3717AEF717AEBADF4BF9888
S11357D401ADF2BF68FFD4EA61F8EC545800717B60
S11357E4E7EC545800710AD4710BD0710ADD710AC4
S11357F4D8ADF4BF9A01ADF2BF6AFFD4EA61F8EC04
S1135804545800710BD4EC545800711AD4711BD041
S1135814711ADD711AD8ADF4BF9C01ADF2BF6CFFEF
S1135824D4EA61F8EC545800711BD4EC5458007158
S11358342AD4712BD0712ADD712AD8ADF4BF9E010C
S1135844ADF2BF6EFFD4EA61F8EC545800712BD466
S1135854880ED161F8EC745800AFBE01BDF48DF02C
S11358646BF49DF28DF16BF59DF3ADF2EC9558005C
S1135874AFBE01BDF68DF09DF27AF2FF8DF19DF37A
S11358847AF3FF8DF25BF69DF48DF35BF79DF5AD32
S1135894F4BFBE01AFBA01D4EA61F8ECC55800BD47
S11358A4F68DF09DF27AF2FF8DF19DF37AF3FF8D7C
S11358B4F25BF69DF48DF35BF79DF5ADF4ECD558EE
S11358C400BDF48DF06BF49DF28DF16BF59DF3AD99
S11358D4F2BFBA01AFB201BDF48DF06BF49DF28D49
S11358E4F16BF59DF3ADF2BFB20161EFC2C061CFBC
S11358F4D788049DF6AFB401BDF48DF676E686969A
S1135904DD05311D96DFFBBDF28DF26BF49DF08D48
S1135914F36BF59DF1ADF0BFB401AFBA01BDF48DE5
S1135924F29DF07AF0FF8DF39DF17AF1FF8DF05B37
S1135934F49DF28DF15BF59DF3ADF2BFBA01AFB8FE
S113594401BDF48DF05BF49DF28DF15BF59DF3AD37
S1135954F2BFB8014AF60461F8ECBC59004AF604F3
S113596461F3EC8C59004AF60261F8ECAE59004A32
S1135974F60261F3ECB559004AF60161E8ECCD593D
S113598400715AE6ECCD59004AF60661F8ECCA599E
S1135994004AF60661D8ECC359004AF60761E8ECFC
S11359A4CD5900712AD4ECCD5900716AE6ECCD5975
S11359B400717AE6ECCD5900717AE7ECCD590071A7
S11359C40AD4ECCD5900711AD4AFB001BDF28DF2F2
S11359D45C9E9DF0F4F1ADF044000061E8ECF959EB
S11359E400AFB401BDF28DF26C019DF08DF39DF115
S11359F4ADF0BFB401D761EFC1C3C561CF200CA81A
S1135A0416BDF4A818BDF6AFB001BDF28DF25CDE8C
S1135A149DF0F4F1ADF044000061F8EC295A00E47F
S1135A24ECEC2C5A00CDEC02ADF644FFFFADF4616E
S1135A34F844FFFF61E8EC4C5A007120E7FF61FD74
S1135A447128E7FFECC75A00ADF4BF4CBAADF6BFFA
S1135A544EBA7100D4FFAF48BAB808AF4ABAB80A0C
S1135A64ADF4B800ADF6B802304100B804F6B80697
S1135A74FCB2E700FBF8FFADF0610908BDF0ADF23C
S1135A8461D8A161090ABDF2ADF0BF48BAADF2BF55
S1135A944ABA4AEC0261E8ECA55A0061FDECA75A43
S1135AA40061EDAF4CBABDE8AF4EBABDEAADEA440D
S1135AB40000ADE861F844000061E8EC965A007116
S1135AC408D4FF100C61EFC4C2C061CFD78FF000BB
S1135AD45C019DF0D4F061F8ECF05A00AFB00144DD
S1135AE4000061E8ECF05A007108F000D720028845
S1135AF4069DF25CF09DF34AF3E061E8EC385B0048
S1135B048DF25C0F9DF0CDF100DAF0F14870B6C966
S1135B14F00000ADF00470B61489D161E8ECC25B06
S1135B2400A6F0ADF044040061E8EC175B005106F4
S1135B34ECBC5B004AF20461F8EC9C5B004AF2049E
S1135B4461F3EC6C5B004AF20261F8EC8E5B004A90
S1135B54F20261F3EC955B004AF20161E8ECAF5B9D
S1135B6400AF9201ECAD5B004AF20661F8ECAA5B6B
S1135B74004AF20661D8ECA35B004AF20761E8EC40
S1135B84AF5B00AF9E01ECAD5B00AF9401ECAD5B89
S1135B9400AF9601ECAD5B00AF9801ECAD5B00AFD8
S1135BA49A01ECAD5B00AF9C01BDF0ADF0440984F7
S1135BB461E8ECC25B008DF29800FCF55800100219
S1135BC4D78FF0005C019DF0D4F061E8ECE25B0057
S1135BD47100F00000000000305000BFB601D7C9C6
S1135BE4F00000D761EFC1C3C561CF2014C9EA76C0
S1135BF4B6C9E80000ADE804B6B616ABBDEC440083
S1135C040061F8EC845C00AF50BAB808AF52BAB87B
S1135C140AFAEAABB810AC02B812A810BDF0A81284
S1135C24BDF2A80A46F2A80861F846F061D8EC84EB
S1135C345C00AF50BAB80CAF52BAB80EADE801FB71
S1135C44F8FF0496B614DAEAA961090C780000AAEC
S1135C540261D8A161090E780200AF50BABDF4AF55
S1135C6452BABDF6ADF4B800ADF6B8028DF4980797
S1135C748DF598068DF698058DF79804DAEC61DABB
S1135C84A6E8A6E8ADEA040400BDEAADE8441000C1
S1135C9461E8ECF95B00101461EFC4C2C061CFD7B2
S1135CA4AF50BABDF4AF52BABDF6ADF4BDF0ADF623
S1135CB4BDF2D761EFC1C361CF2008D5D4B661E882
S1135CC4EC1F5E00FCC15600AF48BAD4F061F8EC96
S1135CD4145D00B800AF4ABAB8028FD0FF9DF3AF89
S1135CE48A01BDF08FD0FF9DF25AF30161E8EC4DB7
S1135CF45D005AF20161F8EC6E5D00A80004010035
S1135D04B800A80261D8A1040000B802EC6A5D00DE
S1135D14B800AF4ABAB802AF8A01BDF0AF48BAB806
S1135D2404AF4ABAB806A804BDF2A806BDF4A80292
S1135D3446F4A80061F846F261E8EC625D00ADF057
S1135D4444FEFF61E8EC6E5D00A800040100B800A5
S1135D54A80261D8A1040000B802EC6E5D00A80496
S1135D64B800A806B802C9F0FEFF30FEFF26F0BD55
S1135D74E8F4EA8DEA9DEBA802315D9DF388017095
S1135D848802315D9DF2A800315DBDF0FBF8FFADE2
S1135D94F061090000BDF0ADF261D8A1610902BD52
S1135DA4F2ADF2315D9DF3D8F18DF2315D9DF2AD2A
S1135DB4F0315DBDF0ADF061090000BDF0ADF261FC
S1135DC4D8A1610902BDF2ADF2315D9DF7D8F18D20
S1135DD4F2315D9DF6ADF0315DBDF4ADF426F0BD58
S1135DE4F4ADF661D8B126F2BDF6ADF4311DBDF0C3
S1135DF4ADF661EEBDF2ADF061090000BDF0ADF2A7
S1135E0461D8A1610902BDF2ADE806F0BDE8ADEACE
S1135E1461D8A106F2BDEAECA65E00AF50BABDF0AB
S1135E24AF52BABDF2ADF2312D9DEBD8F18DF23102
S1135E342D9DEAADF0312DBDE8ADE806F0BDE8AD29
S1135E44EA61D8A106F2BDEAADEA312D9DF3D8E9A1
S1135E548DEA312D9DF2ADE8312DBDF0ADE806F0AB
S1135E64BDE8ADEA61D8A106F2BDEAADEA312D9DE3
S1135E74F3D8E98DEA312D9DF2ADE8312DBDF0ADB5
S1135E84E806F0BDE8ADEA61D8A106F2BDEAADEAE0
S1135E94313D9DEBD8E98DEA313D9DEAADE8313DD4
S1135EA4BDE8ADE8BDF0ADEABDF2100861EFC2C0D3
S1135EB461CFD761EFC1C3C561CF2004A80EBDEA89
S1135EC4A810BDECD5D5B661E8EC165F00FCB75C50
S1135ED400ADF0BDE8ADEC440000ADEA61F8440067
S1135EE40061F8EC225F00FCB75C00ADF026E844E6
S1135EF4E70361E3ECD95E00ADEA04FFFFBDEAAD5C
S1135F04EC61D8A104FFFFBDECADE804E803ECD7D1
S1135F145E00ADEAB800ADECB802FCFA5900100416
S1135F2461EFC4C2C061CFD761EFC1C361CF200C9C
S1135F34D5D5B661E8EC865F00FCB75C00ADF0B87B
S1135F4408ADF2B80AA814B804F198069807C9E889
S1135F540000ADE8BDEAA80646EAA80461F846E8EC
S1135F6461E3ECA15F00FCB75C00FBF8FFADF061FA
S1135F742908BDE8ADF261D8B161290ABDEAEC5A39
S1135F845F00A814B80030E803B802FC18E900ADB7
S1135F94F0B800F19802F19803FCFA5900100C616E
S1135FA4EFC2C061CFD788049DF4A808BDF04AF4B9
S1135FB40161F3EC4560008DF470510001BDF2A859
S1135FC406DAF278C6B6ADF04AF40161F8EC0F6073
S1135FD40044020061E8ECE65F00713838FFECFB32
S1135FE45F00713038FF44030061E8ECFB5F00712B
S1135FF43839FFECFF5F00713039FF715AE8715A88
S1136004EC715BE0715BE4EC45600044020061E820
S1136014EC206000715838FFEC356000715038FF93
S113602444030061E8EC356000715839FFEC3960D1
S113603400715039FF717AE8717AEC717BE0717BFD
S1136044E4D7AFC6B644000061F8EC586000BDF272
S1136054DAF261DAD7AFC8B644000061F8EC6B60D9
S113606400BDF2DAF261DAD7E5D3B6D7AF48BABDE8
S1136074F0AF4ABABDF2ADF0040100BDF0ADF26177
S1136084D8A1040000BDF2ADF0BF48BAADF2BF4AD6
S1136094BAD761EFC161CF8F1EAF9DF6C9F000007E
S11360A44AF6FD61E3EC096100ADF0046CB61489B1
S11360B4D161F8ECF56000ADF004CB30168B9DF49F
S11360C44AF41861F3ECF56000CDF500ADF404B2C4
S11360D430168B705100BDF2ADF4049930BDF6FA5C
S11360E4F68B9DF47AF4FFADF20400FF14895BF49B
S11360F499A6F0ADF044040061E8ECAD6000F51E2F
S1136104AFECCA6100D4F661E8EC716100ADF0044F
S11361146CB61489D161F8EC4B6100ADF004CB305A
S1136124168B9DF44AF41861F3EC4B6100CDF50031
S1136134ADF404B230168B7051000400FF14ADF4B6
S113614404993016896D99A6F0ADF044040061E811
S1136154EC116100ECC461004BF661E3EC86610070
S1136164A6F0ADF044040061F8ECC46100ADF004A1
S11361746CB6168B9DF2D4F261F8EC646100EC5CAD
S11361846100ADF004CB30168B9DF44AF41861F32E
S1136194EC646100CDF500ADF404B230168B70519B
S11361A400BDF2ADF4049930BDE8FAE88B9DF47AAD
S11361B4F4FFADF20400FF14895BF499EC6461000C
S11361C48F74B69F1EAF8F1EAF9DF4CDF2FEC9F03F
S11361D40000ADF0046CB6168B9DF38DF44BF361A3
S11361E4C8ECF761008DF24BF361E3ECF761008DC9
S11361F4F39DF2A6F0ADF044040061E8ECD661002E
S11362048DF29F74B64BF461F8EC286200CDF30070
S11362148DF4705100BDF0ADF226F0315DBF6CFF1A
S1136224EC466200302000BF6CFF8F70B69F6CB6E2
S11362348F71B69F6DB68F72B69F6EB68F73B69F0D
S11362446FB661EFC061CFD7A8041688064C01DF8E
S1136254047183EF364C02DF047193EF2E4C04DF98
S11362640471A3EF264C08DF0471B3EF1E4C10DF56
S11362740471C3EF164C20DF0471D3EF0E4C40DFDE
S11362840471E3EF064C80DF0271F3D7A804168887
S1136294064C01DF047182EF364C02DF047192EF85
S11362A42E4C04DF0471A2EF264C08DF0471B2EF14
S11362B41E4C10DF0471C2EF164C20DF0471D2EFC0
S11362C40E4C40DF0471E2EF064C80DF0271F2D71A
S11362D461EFC1C3C561CF200888129DF288149D63
S11362E4F44AF21861F3ECFC63008DF20CF29DF0B5
S11362F44AF00761F3EC4163004AF21461E8EC0EDE
S1136304630071786E00EC4163004AF21561E8ECB5
S11363141F630071086C00EC4163008F76009DF1EB
S11363248DF20CF59DF0D4F161F8EC3C63008DF131
S11363344BF061E3EC4163008DF09F7600CDF300F4
S1136344ADF204B230168B9DF0ADF2049930168B85
S11363549DEC4AF0FF61F8ECFC6300CDF100ADF074
S11363640420FFBDF2ADF0044000BDEAADF00430FA
S113637400BDE8ADF00400FFB806ADF2B8008DEC42
S11363849802D4F461E8ECA46300FC906200ADEAE2
S1136394B8008DEC9802FC906200ADE8ECE6630072
S11363A44AF40261E8ECCD6300FC906200ADEAB803
S11363B4008DEC9802FC4C6200ADE8B8008DEC98BA
S11363C402FC906200ECF063008DF098058DF19866
S11363D404FC4C620088059DF088049DF1ADF00432
S11363E45000B8008DEC9802FC4C6200A806B8007A
S11363F48DEC9802FC4C6200100861EFC4C2C061C9
S1136404CFD7200488089800880A9802FCD4620034
S11364141004D720048F1FAF4CFF61F8EC3F6400D5
S1136424E19800FCF55800FCD15A0088089800F162
S11364349802FCD4620051FF9F1FAF1004D761EF90
S1136444C1C3C561CF2004880E9DE888109DEA4A23
S1136454E81861F3ECF26400CDE900ADE804B2306D
S1136464168B9DECADE8049930168B9DEB4AECFF3A
S113647461F8ECF26400ADE8048030168B9DF04AB8
S1136484F0FF61F8ECAA64009800FCF15A00ADE84E
S113649404D6B6BDE8EAE8894C0161E8ECAA6400D4
S11364A4DAE8F14800008DEC705100BDF00420FFDF
S11364B414895BEB9DF2ADF0D4F261F8ECCB64008B
S11364C4043000ECCE64000400FFBDF0D4EA61E8BB
S11364D4ECE66400B8008DEB9802FC4C6200ECF22C
S11364E46400ADF0B8008DEB9802FC9062001004D7
S11364F461EFC4C2C061CFD7200488089800880A19
S11365049802FC4264001004D761EFC1C3C561CF93
S1136514201688209DEA4AEA1861F3ECC96700A8AA
S11365242244000071FF61C8EC3F65008DEA9800C5
S1136534E19802FCD46200EC956500A82244FF00B3
S113654471FF61E3EC6665008DEA9800E19802FC52
S1136554D462008DEA9800E19802FC426400ECC91C
S113656467008DEA705100BDE8048030168B9DEB02
S11365744AEBFF61E8EC9E65008DEA9800E198021D
S1136584FCD46200A822447E0071FF61F3EC5765D9
S1136594008DEA9800F1EC5C65008DEB5CF09DF0F5
S11365A44AF0E061E8EC236600FCC55B00C9E8003E
S11365B400ADE80470B61489D161E8ECD06500A696
S11365C4E8ADE844040061E8ECB565008DEB5C0FCC
S11365D49DECCDED00ADEC0470B6BDECEAEC89D1D4
S11365E461E8ECF565008DEA9800E19802FCD46258
S11365F400DAEC8822480000ADE844040061E8ECC9
S1136604C9670051069800300180B802302000B8F0
S113661404F19806E19808FCCA5600ECC967008D99
S1136624F4980D8DF5980C8DF6980B8DF7980AFC5B
S1136634C55B00AFB001BDF28DF25C019DF0F4F1D5
S1136644ADF044000061E8ECAB6600AFB401BDF208
S11366548DF26C019DF08DF39DF1ADF0BFB401306A
S11366640188BF9001AF20AFBF18FFAFB801BDF2DE
S11366748DF25CFE9DF08DF39DF1ADF0BFB801AFDA
S1136684BA01BDF28DF25CFE9DF08DF39DF1ADF087
S1136694BFBA01AFB201BDF28DF26C019DF08DF36E
S11366A49DF1ADF0BFB201A822B812317B981498C1
S11366B415AF20AFA1B80EF198109811A812B80024
S11366C4A814B802A80EB804A810B806FC96E500ED
S11366D4ADF0B800ADF2B80230FF00B804F6B80665
S11366E4FCB2E700ADF0BDF4ADF2BDF6ADE804D6FE
S11366F4B6BDE8EAE889D161E8EC4667008DEA981A
S113670400E198028DF4980D8DF5980C8DF6980B94
S11367148DF7980AFCD462008DEB9800300984B894
S113672402880D9DF4880C9DF5ADF4B804E1980637
S113673488119808FCCA5600DAE8E1480000ECC95C
S113674467004AEB0461F8ECB267004AEB0461F3B6
S1136754EC7C67004AEB0261F8ECA067004AEB02A8
S113676461F3ECA967004AEB0161E8ECC96700AD89
S1136774F4BF1AFFECC967004AEB0661F8ECC4677E
S1136784004AEB0661D8ECBB67004AEB0761E8EC0E
S1136794C96700ADF4BF6EFFECC96700ADF4BF6414
S11367A4FFECC96700ADF4BF66FFECC96700ADF444
S11367B4BF68FFECC96700ADF4BF6AFFECC96700AA
S11367C4ADF4BF6CFF101661EFC4C2C061CFD72013
S11367D404AFCEB6BDF0AFD0B6BDF2ADF244FFFF08
S11367E4ADF061F844FFFF61F8EC0C6800AFCCB67F
S11367F446F2AFCAB661F846F061D8EC0C68008F73
S11368041FAF9800FC1764008F1FAF9DF14AF1FF7E
S113681461F8EC486800AFCAB6040100BFCAB6AF59
S1136824CCB661D8A1040000BFCCB68FD2B69DF01B
S11368347AF0018DF09FD2B68DF198008DF0980214
S1136844FC4264001004D78FA8FF9FEFB6717BFA53
S1136854CF770009CFF50080FC148100FC6B810024
S1136864717AFAD7FCE35B00ADF044000061E8EC14
S1136874876800FC364300FCBC4900FCE85B00EC80
S11368847B6800C9F00000D78F9EFF5C109DF0D494
S1136894F061F8ECB1680071489EFFAFF0B64400B3
S11368A40061F8ECB16800BDF2DAF261DAD7200ACB
S11368B430F2B6B800F19802F19804F19806F19810
S11368C408FC745300100AD7200A30F8B6B800F153
S11368D49802F19804F19806F19808FC7453001096
S11368E40AD7200A3006B7B800F19802F19804F1E7
S11368F49806F19808FC74530030FEB6B800FC4EB8
S11369045300100AD7200A300CB7B800F19802F1EA
S11369149804F19806F19808FC745300100AD720DF
S11369240A3012B7B800F19802F19804F19806F10C
S11369349808FC745300100AD7200A3018B7B8001A
S1136944F19802F19804F19806F19808FC74530044
S1136954100AD7200A301EB7B800F19802F198043F
S1136964F19806F19808FC745300100AD7A804BDE2
S1136974F0DAF0F1480600DAF0F1480700F14808CB
S113698400C9F20000ADF006F2BDF4DAF4F14809EE
S113699400A6F2ADF244200061E8EC896900DAF063
S11369A4F1482900F6782A00FAF0AC364400006174
S11369B4F8ECBF6900BDF2DAF261DAD72002C9F05B
S11369C424B7ADF0BDF2DAF230BCB4780000F1487B
S11369D40200ADF0B800FC7169001002D73265B74B
S11369E4F1480000F1480100F1480500F1480700AE
S11369F4300200780900F6780B00F1482300F67899
S1136A042D0030E230782B00F1483000D788049F01
S1136A144AFF8FE1FF5C029DF0D4F061F8EC166A42
S1136A2400711BE1D7200251FF9800FC116A008F0A
S1136A344AFF9DF01002D72004A808BDF0FAF08C98
S1136A44049800E19802FCFC64001004D72004A814
S1136A5408BDF0FAF08C049800F19802FCFC640080
S1136A641004D761EFC161CF2002A808BDE8EAE8A9
S1136A748A06D161F8ECCE6A00CF4AFFFFFAE8AC8B
S1136A8408BDF0DAE8A1780800ADF044000261F32F
S1136A94ECAE6A008FE1FF5C029DF0D4F061F8EC87
S1136AA4986A00711BE1EC7D6A008FE1FF5C029D32
S1136AB4F0D4F061F8ECAE6A00711BE1ADE8B80003
S1136AC4FC3B6A00DAE8F1480600100261EFC06199
S1136AD4CFD761EFC161CFFCA45C00ADF0BDE8FC8D
S1136AE4296A004AF0FF61F8EC0A6B00FCA45C001C
S1136AF4ADF026E8BDF0A80846F061F3ECE36A00C3
S1136B04F4F0EC0C6B00E4F061EFC061CFD761EFFB
S1136B14C1C3C561CF200AA814BDE8A818BDEAA85A
S1136B241ABDECADE8B800FC676A00ADE8B800FC37
S1136B34516A00ADE8B800302C01B802FCD66A00F2
S1136B4488166C409800FC116A00301800B804A838
S1136B5404B806F198089809ADEABDF0ADECBDF2AD
S1136B64A806BDF4A808BDF6E8F4D3DD15ADF231EA
S1136B741EBDF28DF161FB9DF18DF061FB9DF093DF
S1136B84DFEB8DF09800FC116A00A80404F8FFB848
S1136B940444F8FF61E8EC536B008816D161F8EC07
S1136BA4B66B004C0861F8ECBD6B00CDF0FFECC093
S1136BB46B00CDF095ECC06B00CDF0878DF09800A0
S1136BC4FC116A00F4EAFC296A00DAE88DF0480B47
S1136BD400D171FF61C8ECED6B004AEAFF61F8EC87
S1136BE4ED6B00A4EAECCA6B00100A61EFC4C2C0E6
S1136BF461CFD761EFC1C361CF2002A80ABDE8FC0D
S1136C04A45C00ADF0BDEAFC296A00DAE88DF04822
S1136C140B004AF0FF61E8EC386C00FCA45C00ADA6
S1136C24F026EA442C0161E3EC0B6C00DAE8510F22
S1136C34EC456C004AF0FE61F8EC566C00DAE8515D
S1136C440D480500ADE8B800FC3B6A00F4F0EC58CC
S1136C546C00E4F0100261EFC2C061CFD761EFC1F0
S1136C64C3C561CF2008A812BDE8A814BDF4A816B2
S1136C74BDF6A81ABDEA44000061F8ECF16D00A861
S1136C841806EA44000261F3ECF76D00EAE88A06A8
S1136C94D161F8ECC16C00FAE8ABBDF0AC02BDF212
S1136CA4ADF646F2ADF461F846F061E8ECC16C006F
S1136CB4FAE8A81861490861C8EC2E6D00DAE8AD59
S1136CC4F4780000ADF6780200EAE88A0C4C03611B
S1136CD4F8ECED6C00D8F58DF6311DBDF6ADF4314C
S1136CE41D9DF6ADF4319DBDF4ADE8B80051119885
S1136CF402ADF4B804ADF6B806FC126B00D4F0612E
S1136D04F8EC146D00DAE85103480500ECF76D0063
S1136D14ADE8B800FCF76B00D4F061F8ECF76D0053
S1136D24DAE8F6780800E1480600CF4AFFFFA8181D
S1136D3416EAE8AA084761C8EC616D008FE1FF5CBC
S1136D44029DF0D4F061F8EC406D00711BE1CF4A70
S1136D54FFFFEAE8AA08A1BA08EC326D00ADEAB173
S1136D64BDF2C9F00000ADF046F261C8ECA26D00BA
S1136D748FE1FF5C029DF4D4F461F8EC746D00714E
S1136D841BE18F4AFF9DF6A81C06F0BDECDAEC8DDE
S1136D94F6480000CF4AFFFFA6F0EC6A6D008FE1CD
S1136DA4FF5C029DF0D4F061F8ECA26D00711BE16C
S1136DB48F4AFF9DF0A81C06F2BDF4DAF48DF04866
S1136DC40000FAE8AC0806EABDEADAE8780800EA62
S1136DD4E88A0AD161F8ECE96D00ADEA44FF016187
S1136DE4E3ECF16D00ADE8B800FC676A00E4F0EC94
S1136DF4016E00ADE8B800FC3B6A00F4F0100861D1
S1136E04EFC4C2C061CFD7200CA810B800A812B830
S1136E1402A814B804F6B806300002B808A816B8D4
S1136E240AFC616C00100CD761EFC161CF2002A889
S1136E3408BDE8880A9F4AFFA80CBDF0040002BDFF
S1136E44F28FE1FF5C029DF4D4F461F8EC456E002A
S1136E54711BE1FAF08B9F4AFF8FE1FF5C029DF402
S1136E64D4F461F8EC5D6E00711BE1FAF08C019FBF
S1136E744AFFA6F0A6F0ADF046F261E8EC456E00D8
S1136E848FE1FF5C029DF0D4F061F8EC846E007134
S1136E941BE151FF9800FC116A0051FF9800FC119A
S1136EA46A00FC296A00DAE88DF0480B005AF01FE6
S1136EB44AF00561F8ECD26E00DAE8511148050095
S1136EC4ADE8B800FC3B6A00F4F0ECD46E00E4F0E6
S1136ED4100261EFC061CFD761EFC161CF2008A870
S1136EE40EBDE8A810BDF0A812BDF2ADF244000036
S1136EF4ADF061F844000061E8EC096F00DAE85190
S1136F0412ECAC6F00EAE88A0C4C0361F8EC296FCC
S1136F1400D8F18DF2311DBDF2ADF0311D9DF2ADFD
S1136F24F0319DBDF0ADE8B80051189802ADF0B849
S1136F3404ADF2B806FC126B00D4F061F8EC4D6FAA
S1136F4400DAE85104ECAC6F00ADE8B80051FE98E7
S1136F5402A814B804FC2C6E00D4F061F8ECAF6FF2
S1136F6400ADE8B800305802B802FCD66A00D4F088
S1136F7461E8EC826F00DAE85115ECAC6F00ADE81F
S1136F84B800510D9802F6B804F6B806FC126B006A
S1136F94D4F061E8ECA86F00FC296A00D4F061F82D
S1136FA4ECBD6F00DAE85114480500ADE8B800FC04
S1136FB43B6A00F4F0ECC76F00ADE8B800FC3B6A30
S1136FC400E4F0100861EFC061CFD761EFC161CF75
S1136FD42008A80EBDE8FAE8AC1CB800E6B802F62E
S1136FE4B804ADE8040600B806FCE07A00D4F06105
S1136FF4F8EC257000FAE8AC1A440000AC1861F807
S113700444000061E8EC237000FAE8AC06DAE8789E
S11370141800AC08781A00EAE88A046C809A04E43C
S1137024F0100861EFC061CFD761EFC161CF2006D2
S1137034A80CBDE8FAE8AC0EB800FAE8AC10B80243
S1137044880E9804FCA07700D4F061F8EC66700014
S1137054FAE88C12705100315D04BAB7BDF0EC6AE1
S11370647000C9F00000100661EFC061CFD761EF72
S1137074C1C3C561CF201EA828BDECA82ABDE8A8B9
S11370842CBDEAFAEC8C059DF4D4F461F8ECB570EB
S113709400FAECAC14BDF0AC16BDF2ADEA46F2ADA8
S11370A4E861F846F061E3ECBD7000F4F0EC26729C
S11370B4008DF49DF0EC2672004AF40261F8EC2091
S11370C47200ADEA440000ADE861F844000061E8F0
S11370D4ECF47000DAECADE8780600ADEA78080068
S11370E4ADE8780A00ADEA780C00E4F0EC2672000E
S11370F4FAECAC0AB808AC0CB80AAC1CBDF0FAF053
S11371048C0E705100040900B81CA80804FFFFBDCC
S1137114F0A80A61D8A104FFFFBDF2A81CB810F1BD
S113712498129813A810BDF4A812BDF6E8F4D3DDA0
S113713415ADF2311EBDF28DF161FB9DF18DF0614F
S1137144FB9DF093DFEBADE804FFFFB80CADEA61FF
S1137154D8A104FFFFB80EA81CB814881398168885
S1137164139817A814BDF4A816BDF6E8F4D3DD15D6
S1137174A80E311EB80E880D61FB980D880C61FBB6
S1137184980C93DFEBA80E46F2A80C61F846F06164
S1137194D8ECAB7100A80A440000A80861F84400C4
S11371A40061E8ECBD7100FAECAC18DAEC78060086
S11371B4AC1A780800ECCC7100A80C26F0B80CA822
S11371C40E61D8B126F2B80EA80CB818A80EB81AD5
S11371D4ADEC040600B810A81A440000A81861F81D
S11371E444000061F8EC207200FAECAC1CB800AC6A
S11371F406B802AC08B804A810B806FC127800A8B3
S11372041804FFFFB818A81A61D8A104FFFFB81A1C
S1137214D4F061E8ECDB7100EC267200DAECECE407
S11372247000101E61EFC4C2C061CFD761EFC1C347
S1137234C561CF2006A810BDECEAEC8A05D161F83B
S1137244ECE87200EAEC8A04D171FF61C8ECE072E4
S113725400ADECB800E19802FC2D7000ADF04400E0
S11372640061F8ECE87200EAEC8A054C0161F3EC85
S1137274857200FAECAC14DAF0781C00AC16781EB3
S113728400FAECAC18BDE8AC1ABDEADAF0ADE87863
S11372941A00ADEA781400AFB0B7BDF2440000613F
S11372A4F8ECD87200ADF0041800B800ADF0041680
S11372B400B8028DF098058DF19804ADF2BDF4DAAE
S11372C4F461DA88059DF088049DF1FAF0AC18DACB
S11372D4F0781200EAEC8A045C7F9A04FC1F7700BD
S11372E4ECEA7200F4F0100661EFC4C2C061CFD7B7
S11372F461EFC1C3C561CF2042A84CBDECEAEC8A5E
S1137304054C0161E8EC5A7300FAEC8C049DF05CC2
S1137314029DF1D4F161F8EC5A73005AF00461F857
S1137324EC6F7300FAECAC14BDF4AC16BDF6AC0C03
S113733446F6AC0A61F846F461F8EC6F7300ADEC00
S1137344B800ADF4B802ADF6B804FC727000D4F021
S113735461E8EC6F7300DAECE6780200F6B80EBD6F
S1137364F0104261EFC4C2C061CFD7A850B818EC82
S1137374BE7400AC1CBDF0EAF08A04919DF2D8E915
S11373848DEA317D9DF4ADEA317D9DF5ADEA319E02
S1137394BDF68DF25BF498168DE898148DE95C01C2
S11373A498158816D161F8ECD97400A81416300025
S11373B40227B80CA818BDF2B81AA80C46F261C882
S11373C4ECCA7300B81AFAECAC0604FEFFBDF4ACC4
S11373D40861D8A104FFFFBDF6AC1CBDF0FAF08C23
S11373E40E705100B810F198129813A810BDF0A8AB
S11373F412BDF28DF0D1DD1175ADF6DAF4311C61F4
S1137404EE95DFF9BDF613BDF4FAECAC1CBDF2FA4B
S1137414F2ADF4610910BDF4ADF661D8A1610912AD
S1137424BDF68816982C8813982D982E982FFBF85F
S1137434FFADF461092CBDF4ADF661D8A161092E48
S1137444BDF6A81A44000261E8ECBB7500AF24AF92
S113745446F6AF22AF61F846F461E8EC6F7400308D
S1137464FFFFBF22AF30FFFFBF24AFAFB8B7B800F0
S1137474ADF4B802ADF6B804A84EB806FCDC6E0050
S1137484D4F061F8EC5A7300A84E040002B84EA874
S11374941A16A81827B818A81AB830F198329833CD
S11374A4FBF8FFEAECDAECAA0A610930780A00AACC
S11374B40C61D8A1610932780C00FAECAC0ABDE87D
S11374C4AC0CBDEAA818FAEC44000061E8EC77734C
S11374D400EC8C7600A81444000061E8ECAF73005F
S11374E4FAECAC06B81CAC08B81EA81E440000A8EC
S11374F41C61F844000061E8EC297500FAECAC184E
S1137504B820AC1AB822A822440000A82061F84488
S1137514000061F8EC977500A820DAEC780600A85E
S113752422ECB47500ADF0B800A81CB802A81EB8CB
S113753404AEF804420004FCFFB806FC127800D43C
S1137544F061E8EC517500A814EC617300A83EB82E
S113755424A840B826FAECAC1CBDF0EAF08A1A4C14
S11375641061E8EC75750030F8FFB828F6EC7D7509
S11375740030F8FFB82830FF0FB82AA828BDF2A8B5
S11375842ABDF4A82646F4A82461F846F261D8EC8E
S1137594AB7500ADECB800FCCF6F00D4F061E8EC3F
S11375A4AF7300EC5A7300A824DAEC780600A8261A
S11375B4780800ECAF7300A81444000061E8EC2AD6
S11375C47600FAECAC14B836AC16B838A836BDF06C
S11375D4A838BDF2AC0C46F2AC0A61F846F061D8A6
S11375E4EC2A76008DF4980B8DF5980A8DF698099B
S11375F48DF79808FC1F7700880B9DF4880A9DF585
S113760488099DF688089DF7D4F061F8EC5A730054
S1137614ADF4BF22AFADF6BF24AF8FB6B76C019FF4
S1137624B6B7EC417600ADF4B800ADF6B802E19813
S113763404FCA07700D4F061F8EC5A7300A8140495
S1137644BAB7B816A84EB834A81A16A81607BDF0C7
S1137654A816B80C46F061F8EC7C7600A80CBDF2D0
S1137664A834BDF4DAF2FAF48B480000ADF4A1B8FE
S113767434ADF2A1EC567600A81616A80C27BDF07A
S1137684A84E06F0EC917400AC14B83AAC16B83CAD
S1137694A83ABDF2A83CBDF4ADEA46F4ADE861F8FD
S11376A446F261E3ECBC7600DAECADE8781400ADA4
S11376B4EA781600ECD37600AFB0B744000061F862
S11376C4ECDB7600A85044000061F8ECDB7600EAB9
S11376D4EC8A046C809A04EAEC8A045C089DF0D475
S11376E4F061E8ECF17600A850EC617300ADECB8FD
S11376F400FC307200D4F061F8EC5A7300ECEB76C1
S1137704002006A80AB800AEF8040A00040200B86F
S113771402E6B804FCF472001006D761EFC1C36139
S1137724CF2008D5B6B761F8EC957700AFB8B7B8F1
S113773400AF22AFB802AF24AFB80430BAB7B8066A
S1137744FCDC6E00D4F061F8EC977700AFB2B7BDFF
S1137754E8AFB4B7BDEAADEA440000ADE861F8446B
S1137764000061F8EC927700AFB8B7B800ADE8B8A0
S113777402ADEAB80430BAB7B806FCDC6E00D4F043
S113778461F8EC977700F6BFB2B7F6BFB4B7F5B6B5
S1137794B7E4F0100861EFC2C061CFD761EFC1C391
S11377A461CF2008A810BDE8A812BDEAAF24AF46F3
S11377B4EAAF22AF61F846E861F8ECFC7700FC1FFD
S11377C47700D4F061E8ECD47700F4F0EC097800A5
S11377D4AFB8B7B800ADE8B802ADEAB80430BAB788
S11377E4B806FC0B6E00D4F061F8ECCE7700ADE87B
S11377F4BF22AFADEABF24AF8814768FB6B7616EEB
S11378049FB6B7E4F0100861EFC2C061CFD761EF4F
S1137814C1C3C561CF201AA826B80EA828B810A8D9
S11378242ABDECA824BDF2FAF2AC0A040100B8069D
S1137834AC0C61D8A1040000B808A806BDF0A808DF
S1137844BDF2A81046F2A80E61F846F061E3EC5CC0
S11378547800F4F0EC6D7900A824BDF2FAF2AC16C9
S1137864B812A824BDF2FAF2AC18B814A824BDF2D4
S1137874EAF28A1A4C1061E8EC917800880F708857
S113788410BDF0A810318EBDF2ECA67800A80E311C
S11378941D9DF0880F708810311D9DF1A810317E54
S11378A4BDF2FBF8FFADF0610912B806ADF261D880
S11378B4A1610914B808AF22AFB816AF24AFB81841
S11378C4A816BDF0A818BDF2A80846F2A80661F8E7
S11378D446F061E8EC0C7900A824BDF2EAF28A1AB5
S11378E44C1061E8EC377900880E9DE8F4E98DE9E1
S11378F49DEBADE80104BAB716ABDAEC7800008D61
S1137904EB480200EC687900A806B800A808B8029D
S1137914F198048DF4980D8DF5980C8DF6980B8DD3
S1137924F7980AFCA07700D4F061E8ECDC7800EC6A
S1137934567800880E5C7F9DF4F4F5ADF4312D0483
S1137944BAB7BDF4BDF0DAECEAF0895CFF48000094
S1137954EAF48A015CFF4801008A025CFF480200E1
S11379648A035C0F480300E4F0101A61EFC4C2C038
S113797461CFD761EFC1C3C561CF201EA828BDEC78
S1137984A82AB80AA82CB80CA82EB812A830B8147F
S1137994A80C440000A80A61F844010061E3ECD493
S11379A47A00FAECAC0A040100BDF0AC0C61D8A175
S11379B4040000BDF2A80C46F2A80A61F846F0617E
S11379C4F3ECD47A00FAECAC16B816AC18B818EA8E
S11379D4EC8A1A4C1061E8ECF07900880B70880C7E
S11379E4BDF0A80C318EBDF2EC057A00A80A311D55
S11379F49DF0880B70880C311D9DF1A80C317EBD5F
S1137A04F2FBF8FFADF0610916B80EADF261D8A12E
S1137A14610918B810AF22AFB81AAF24AFB81CA8C4
S1137A241ABDF0A81CBDF2A81046F2A80E61F846CF
S1137A34F061E8EC607A00EAEC8A1A4C1061E8EC34
S1137A448B7A00880A9DE8F4E9ADE80104BAB7BD6D
S1137A54E8A812DAE8780000ECA57A00A80EB800C9
S1137A64A810B802F198048DF498098DF598088D3E
S1137A74F698078DF79806FCA07700D4F061E8EC3B
S1137A843B7A00ECD67A00880A5C7F9DF4F4F5AD69
S1137A94F4312DBDF4A812DAF478BAB7A81478BC7A
S1137AA4B78FB6B76C019FB6B7EAEC8A144C016180
S1137AB4E3ECCE7A00FAECA80E610906BFB2B7A8CB
S1137AC41061D8A1610908BFB4B7E4F0ECD67A0018
S1137AD4F4F0101E61EFC4C2C061CFD761EFC1C31B
S1137AE4C561CF202EA838BDECA83AB81AA83CB872
S1137AF41CA83EBDE8FAE8ABBDF0AC02BDF2ADF2A1
S1137B04440000ADF061F844000061F8EC297B0006
S1137B14ADF0040100B816ADF261D8A1040000B8B8
S1137B2418EC467B00FAECABB816AC02B818E4EADD
S1137B34A81C440000A81A61F844010061F8EC4848
S1137B447B00F4EAFAECAC0A040100B826AC0C613C
S1137B54D8A1040000B828A816B812A818B814C9E3
S1137B64F40000ADF4BDF6FAECAC0AB822AC0CB8DF
S1137B7424A822BDF0A824BDF2ADF646F2ADF4610A
S1137B84F846F061C8ECA37C00A826BDF0A828BD83
S1137B94F2A81446F2A81261F846F061E3ECB57B4E
S1137BA400300200B812F6B814A812B816A814B813
S1137BB418ADECB800A812B802A814B804AEF804BE
S1137BC42E0004FCFFB8068DF498118DF598108DE1
S1137BD4F6980F8DF7980EFC12780088119DF4889E
S1137BE4109DF5880F9DF6880E9DF7D4F061F8EC8E
S1137BF4A37C00A82C440000A82A61F84400006176
S1137C04F8EC1E7C00A812040100B816A81461D86C
S1137C14A1040000B818EC5B7C00A812040100BDA8
S1137C24F0A81461D8A1040000BDF2FBF8FFADF084
S1137C34612916B80AADF261D8B1612918B80CA843
S1137C441ABDF0A81CBDF2A80C46F2A80A61F846B5
S1137C54F061F8EC817C00ADF4040100BDF4ADF6F0
S1137C6461D8A1040000BDF6A812040100B812A84A
S1137C741461D8A1040000B814EC6B7B00ADECB81B
S1137C8400A812B802A814B80430FFFFB80630FFE5
S1137C940FB808FC777900D4F061E8ECE27C00F4D6
S1137CA4F0EC657D00A81204FFFFB81AA81461D88B
S1137CB4A104FFFFB81CADECB800A81AB802A81CB4
S1137CC4B804A812B806A814B808FC777900D4F04C
S1137CD461F8ECA37C00A81AB812A81CB814A8165E
S1137CE4BDF0A818BDF2A81446F2A81261F846F033
S1137CF461F3ECA97C00FAE8ABB81EAC02B820A886
S1137D0420440000A81E61F844000061E8EC3F7DB3
S1137D1400A816DAE8780000A818780200D4EA610A
S1137D24F8EC637D00EAECA816040100B9A8186114
S1137D34D8A1040000BA02EC637D00ADECB800A83D
S1137D441EB802A820B804A816B806A818B808FCD7
S1137D54777900D4F061E8EC157D00ECA37C00E4B1
S1137D64F0102E61EFC4C2C061CFD720048FC3B911
S1137D749DF28FC2B9705100BDF08FC3B9D4F261C2
S1137D84E8ECB87D00318F46F071FF7177F161C87A
S1137D94EC2A7E008FC3B9318F312D04C4B9148900
S1137DA4316A9DF25AF2014AF20161E8EC2A7E003A
S1137DB4EC877E00D171FF61E3EC2A7E008FC3B9A6
S1137DC4318F46F071FF7177F161C8ECEF7D008F5C
S1137DD4C3B9318F312D04C4B91489316A9DF25A5F
S1137DE4F2014AF20161F8EC9D7E008FC3B9318F30
S1137DF4BDF28FC2B9705100BDF0ADF246F071FF0F
S1137E047177F161F3EC2A7E008FC3B9318FB131FC
S1137E142D04C4B91489316A9DF05AF0014AF00161
S1137E2461F8ECB97E00A0C3B98FC3B99DF08FC2C9
S1137E34B9705100BDF28DF0318FBDF0ADF246F052
S1137E4471FF7177F161D8ECD57E008FC3B94C0B07
S1137E5471FF61F3ECD57E008FC3B9318F312D04EA
S1137E64C4B9BDF0FAF0AC02BF68FF8FC3B9318F57
S1137E74312D04C4B9BDF0FAF0AFC0B9610902EC04
S1137E84F07E008FC3B9318F312D04C4B914895CD9
S1137E943F98008DF2ECCB7E008FC3B9318F312D26
S1137EA404C4B914895C3F98008DF29802FCFC6404
S1137EB400ECEF7D008FC3B9318FB1312D04C4B907
S1137EC414895C3F9800F19802FCFC6400EC2A7E5F
S1137ED400AFC0B9040400441F4E61F3ECF67E0005
S1137EE430204EBF68FF51FF9FC3B9F6BFC0B9101D
S1137EF404D7300400ECE77E00FC6F7D00D78F24A8
S1137F04BA705100BDF28F25BA705100BDF0ADF2C4
S1137F1426F0BDF0D78F25BA9DF24F24BA61C8EC80
S1137F243E7F007051000426BA168B705100BDF0D8
S1137F348DF2819F25BAEC427F00C9F0FFFFD78FF1
S1137F4425BA9DF04F24BA61C8EC647F00CDF100DA
S1137F54ADF00426BA168B705100BDF0EC687F00B6
S1137F64C9F0FFFFD7D761EFC1C3C561CF2006A80D
S1137F7410BDEAA814BDE8A812D500BA61F8ECBF94
S1137F847F00B80406E8BDECA80446EC61F8ECC92B
S1137F947F00FAEAABBDF0ADEAB800A804BDF2FA7A
S1137FA4F28B9802ADF0BDF2FAF2ABBDF2FAF261D3
S1137FB4FAFBF8FF617904EC8C7F00B8008DE89833
S1137FC402FC628300ADE8BDF0100661EFC4C2C0D8
S1137FD461CFD72004D500BA61F8EC1D80008F016D
S1137FE4BA4C1F61E3ECFF7F00A808BDF0DAF0E6A9
S1137FF4780200C9F00000EC3280008F02BA9DF2CE
S1138004705100BDF0DAF0880A4803BA8DF2819FFA
S113801402BA9F01BAEC2E8000AEF80408000402F0
S113802400B800E19802FC628300C9F00100100466
S1138034D7A804BDF0DAF0F6780200DAF030E803E9
S1138044780400F678060030FA30780000D7F52575
S1138054BAF524BAF502BAF501BAFC018700D720AF
S113806408880E98003026BAB80288109DF04AF0A9
S11380742061E3EC7E8000CDF0208DF0980488121A
S11380849806FC2B8700F525BA8DF09F24BA1008B6
S1138094D72008A80CB800880E980288109804E128
S11380A49806FC6380001008D7E500BA88069F236D
S11380B4BAF502BAF501BAD72004A808B800880AA8
S11380C49802FCAD80001004D7200A8F23BA9800CC
S11380D43003BAB8028F01BA9804E198068810985C
S11380E408FC0C8800F502BAF501BAF500BA100AC6
S11380F4D72004A808B800E19802FCCD800010043D
S1138104D7200230F4B9B800FC3580001002D7D768
S1138114CFA0FF107170A1FF7148A4FF7168A1FF83
S1138124C9F0903AC9F21C0000ADF004FFFFBDF0A1
S1138134ADF261D8A104FFFFBDF2ADF2440000AD7D
S1138144F061F844000061E8EC2C8100F5F300715F
S113815408A1FF7168A4FF8FA4FF5C809DF0D4F094
S113816461E8EC5B8100D761EFC1C3C561CFC9F09D
S1138174F000ADF0BDF2EAF2896C8099C9F490FF85
S1138184ADF4BDF6DAF6F6780000C9F6E7FFADF60D
S1138194BDE8EAE8896C04997120EFFF7120EBFFD4
S11381A4302000780000ADF0BDE8EAE8896C01995C
S11381B4305000BFB601C9F2B401ADF2BDF0FAF01B
S11381C4ABBDE88DE86C209DF08DE99DF1ADF2BD69
S11381D4E8DAE8ADF0780000C9F0D4FFADF0BDF200
S11381E4EAF2896C0199C9F2D0FFADF2BDE8EAE87C
S11381F4895CFE997108D8FF7108DCFF300080BFE8
S11382049A0130FEFFBF6AFF36BE01ABBDEC8DECB4
S11382145CDF9DEA8DED9DEBADEABB36BC01ABBDE5
S1138224EC8DEC5CDF9DEA8DED9DEBADEABB36B8DD
S113823401ABBDEC8DEC5CDF9DEA8DED9DEBADEA0D
S1138244BB36BA01ABBDEC8DEC5CDF9DEA8DED9DD4
S1138254EBADEABB7128E3FFADF6BDE8EAE8895C5F
S1138264FB99ADF4BDF6FAF6ABBDE88DE89DF68D49
S1138274E96C809DF7ADF4BDE8DAE8ADF67800006A
S1138284ADF2BDF4EAF4895CFE99ADF0BDF6EAF60C
S1138294895CFE9936B201ABBDF48DF46C209DF07B
S11382A48DF59DF1ADF0BBF6BF48BAF6BF4ABAF6F8
S11382B4BF50BAF6BF52BA61EFC4C2C061CFD7612E
S11382C4EFC1C361CF2008AF50BABDE8AF52BABD05
S11382D4EAADE8040100BDE8ADEA61D8A1040000F8
S11382E4BDEAADE8BF50BAADEABF52BAAF4CBABDAD
S11382F4F4AF4EBABDF6ADF6440000ADF461F844F3
S1138304000061F8EC318300AF4CBAB804AF4EBA44
S1138314B806A80404FFFFBDF4A80661D8A104FFAD
S1138324FFBDF6ADF4BF4CBAADF6BF4EBAAF46BA14
S1138334BDF444000061F8EC598300AF50BABDF0B9
S1138344AF52BABDF2ADF0B800ADF2B802ADF4BDAF
S1138354F0DAF061DA100861EFC2C061CFD78806A1
S11383649DF44AF42061F3ECAA83008FC5BA9DF00E
S11383744AF00461E8ECB083008DF49F79BAC9F043
S113838400008DF44BF061E3ECA48300A80406F030
S1138394BDF6DAF0FAF68B487BBAA6F0EC868300D5
S11383A4F4F0ECB38300E4F0ECB38300CDF002D733
S11383B47170300271203002713BE2713AE671004F
S11383C430028F51FF5C019DF0D4F061F8ECC68358
S11383D400F5C5BAD77170300271203002713BE2E6
S11383E4713BE6F5C5BAD720068F51FF5C809DF03A
S11383F48F51FFD4F061F8EC7284005C089DF08F17
S113840451FFD4F061F8EC4584005C409DF0D4F055
S113841461E8ECBF85008F51FF5C049DF08F51FF30
S1138424D4F061F8EC338400F6B804EC0585005C00
S1138434029DF0D4F061F8ECB285005120ECB485CF
S1138444005C049DF08F51FF5C02D4F061F8EC648D
S113845484009DF0D4F061E8EC0E8600EC458500C0
S11384649DF0D4F061E8ECB78500EC4585005C1020
S11384749DF28F51FFD4F261F8ECEA84005C089D0C
S1138484F08F51FF5C40D4F061F8ECBE84009DF0A1
S1138494D4F061E8EC6C85008F51FF5C049DF0D44A
S11384A4F061F8EC1686008F51FF5C029DF0D4F065
S11384B461E8EC6C8500EC9885009DF0D4F061E8EB
S11384C4EC1E86008F51FF5C049DF0D4F061F8EC3F
S11384D49A86008F51FF5C029DF0D4F061E8EC1E93
S11384E48600EC3186005C019DF0D4F061F8EC9ACE
S11384F486008F54BA4C0161E8EC958600EC5786EB
S113850400A80444040071FF61F3EC1C8500FBF82B
S1138514FF617904EC0585008F9CBA9DF18F9BBAA9
S11385249DF08DF14BF061C8EC5185008F9CBA9D90
S1138534F0819F9CBACDF100ADF0049DBAECA985FD
S113854400D556BA61F8ECCC8500F556BA8FC3BA97
S11385549DF0D4F061E8ECB78500E5C2BA7110303F
S113856402F5C5BAEC9A860051049FC5BAF57ABAE5
S1138574F579BAAFC0BABDF2DAF261DA8F79BA9D8D
S1138584F0D4F061E8EC958500E579BA8DF09F7B31
S1138594BAF554BA8F7ABA9DF0819F7ABACDF100B4
S11385A4ADF0047BBA168B9F50FFEC9A86005130D1
S11385B49F57BAFCB48300EC9A860051389F57BA8B
S11385C4FCD98300EC9A86008F9CBA9DF08F50FFEF
S11385D4CDF100DAF0489DBA8F9CBA9DF18F9BBA15
S11385E49DF08DF14BF061C8ECFB850071503002B5
S11385F4A09CBAEC9A860071283002713030027162
S1138604503002E556BAEC9A860071203002713873
S1138614300271503002EC9A860051039FC5BAF5BA
S113862458BA71503002E554BAEC9A86008F58BA9D
S11386349DF04AF01F61F3EC1686008F58BA9DF042
S1138644819F58BA8F50FFCDF100DAF04859BAEC43
S11386541686008F58BA9DF04AF01F61F3EC7486B5
S1138664008F58BA9DF0CDF100DAF08DF24859BA72
S11386748F58BA9DF03059BAB8008DF0705100B8D3
S113868402AFBEBABDF2DAF261DAF558BAEC9A86F0
S1138694008DF29FC5BA1006D78F20FF6C039F206C
S11386A4FF8F26FF6C039F26FF7140F00071783022
S11386B402713AE6713BE2713AEE713AEA71383189
S11386C402CF32024BCF3302548F55BA9F34027116
S11386D4003102711A52710A527140300271303001
S11386E40271203002713BE6717030028F06FF5C28
S11386F4FC9F06FF8F26FF5CFC9F26FFD72004F512
S1138704C5BAE5C3BAF5C2BA510898005102980231
S1138714FC0664005107980051029802FC066400A8
S1138724FC9D86001004D761EFC161CF88069DE9E2
S1138734880A9DE88FC2BA9DF04AF00161F8EC4AB8
